{
  "_format": "hh-sol-artifact-1",
  "contractName": "DataConsumerV3",
  "sourceName": "contracts/oracle.sol",
  "abi": [
    {
      "inputs": [],
      "stateMutability": "nonpayable",
      "type": "constructor"
    },
    {
      "inputs": [
        {
          "internalType": "enum DataConsumerV3.currencyPairs",
          "name": "_pair",
          "type": "uint8"
        }
      ],
      "name": "getChainLinkDataFeedLatestAnswer",
      "outputs": [
        {
          "internalType": "int256",
          "name": "",
          "type": "int256"
        }
      ],
      "stateMutability": "nonpayable",
      "type": "function"
    },
    {
      "inputs": [],
      "name": "getStoredConversion",
      "outputs": [
        {
          "internalType": "int256",
          "name": "",
          "type": "int256"
        }
      ],
      "stateMutability": "view",
      "type": "function"
    },
    {
      "inputs": [],
      "name": "storedConversion",
      "outputs": [
        {
          "internalType": "int256",
          "name": "",
          "type": "int256"
        }
      ],
      "stateMutability": "view",
      "type": "function"
    }
  ],
  "bytecode": "0x608060405234801561001057600080fd5b50731b44f3514812d835eb1bdb0acb33d3fa3351ee436000806101000a81548173ffffffffffffffffffffffffffffffffffffffff021916908373ffffffffffffffffffffffffffffffffffffffff16021790555073694aa1769357215de4fac081bf1f309adc325306600160006101000a81548173ffffffffffffffffffffffffffffffffffffffff021916908373ffffffffffffffffffffffffffffffffffffffff16021790555073c59e3633baac79493d908e63626716e204a45edf600260006101000a81548173ffffffffffffffffffffffffffffffffffffffff021916908373ffffffffffffffffffffffffffffffffffffffff160217905550735fb1616f78da7afc9ff79e0371741a747d2a7f22600360006101000a81548173ffffffffffffffffffffffffffffffffffffffff021916908373ffffffffffffffffffffffffffffffffffffffff16021790555061062a806101736000396000f3fe608060405234801561001057600080fd5b50600436106100415760003560e01c8063064d293d146100465780632620394e14610064578063cab51f9614610082575b600080fd5b61004e6100b2565b60405161005b9190610434565b60405180910390f35b61006c6100b8565b6040516100799190610434565b60405180910390f35b61009c60048036038101906100979190610479565b6100c2565b6040516100a99190610434565b60405180910390f35b60045481565b6000600454905090565b60008060038111156100d7576100d66104a6565b5b8260038111156100ea576100e96104a6565b5b036101975760008060009054906101000a900473ffffffffffffffffffffffffffffffffffffffff1673ffffffffffffffffffffffffffffffffffffffff1663feaf968c6040518163ffffffff1660e01b815260040160a060405180830381865afa15801561015d573d6000803e3d6000fd5b505050506040513d601f19601f820116820180604052508101906101819190610579565b5050509150508060048190555080915050610416565b600160038111156101ab576101aa6104a6565b5b8260038111156101be576101bd6104a6565b5b0361026c576000600160009054906101000a900473ffffffffffffffffffffffffffffffffffffffff1673ffffffffffffffffffffffffffffffffffffffff1663feaf968c6040518163ffffffff1660e01b815260040160a060405180830381865afa158015610232573d6000803e3d6000fd5b505050506040513d601f19601f820116820180604052508101906102569190610579565b5050509150508060048190555080915050610416565b600260038111156102805761027f6104a6565b5b826003811115610293576102926104a6565b5b03610341576000600260009054906101000a900473ffffffffffffffffffffffffffffffffffffffff1673ffffffffffffffffffffffffffffffffffffffff1663feaf968c6040518163ffffffff1660e01b815260040160a060405180830381865afa158015610307573d6000803e3d6000fd5b505050506040513d601f19601f8201168201806040525081019061032b9190610579565b5050509150508060048190555080915050610416565b600380811115610354576103536104a6565b5b826003811115610367576103666104a6565b5b03610415576000600360009054906101000a900473ffffffffffffffffffffffffffffffffffffffff1673ffffffffffffffffffffffffffffffffffffffff1663feaf968c6040518163ffffffff1660e01b815260040160a060405180830381865afa1580156103db573d6000803e3d6000fd5b505050506040513d601f19601f820116820180604052508101906103ff9190610579565b5050509150508060048190555080915050610416565b5b919050565b6000819050919050565b61042e8161041b565b82525050565b60006020820190506104496000830184610425565b92915050565b600080fd5b6004811061046157600080fd5b50565b60008135905061047381610454565b92915050565b60006020828403121561048f5761048e61044f565b5b600061049d84828501610464565b91505092915050565b7f4e487b7100000000000000000000000000000000000000000000000000000000600052602160045260246000fd5b600069ffffffffffffffffffff82169050919050565b6104f4816104d5565b81146104ff57600080fd5b50565b600081519050610511816104eb565b92915050565b6105208161041b565b811461052b57600080fd5b50565b60008151905061053d81610517565b92915050565b6000819050919050565b61055681610543565b811461056157600080fd5b50565b6000815190506105738161054d565b92915050565b600080600080600060a086880312156105955761059461044f565b5b60006105a388828901610502565b95505060206105b48882890161052e565b94505060406105c588828901610564565b93505060606105d688828901610564565b92505060806105e788828901610502565b915050929550929590935056fea2646970667358221220ee468af4d23e6bc187b5f774ca1366144719e3622d7bc4c58ccc25b1d3b5d73764736f6c63430008130033",
  "linkReferences": {},
  "deployedLinkReferences": {}
}